:100000000C945C000C949A020C9473020C9479008A
:100010000C9479000C9479000C9479000C9479007C
:100020000C9479000C9479000C9479000C9479006C
:100030000C9479000C9479000C9479000C9479005C
:100040000C9429020C9479000C9479000C9479009A
:100050000C9479000C9479000C9479000C9479003C
:100060000C9479000C947900000000002400270013
:100070002A0000000000250028002B0004040404CE
:100080000404040402020202020203030303030342
:10009000010204081020408001020408102001021F
:1000A00004081020000000080002010000030407FB
:1000B000000000000000000011241FBECFEFD8E0B8
:1000C000DEBFCDBF11E0A0E0B1E0E4E5F9E002C0A1
:1000D00005900D92AE32B107D9F721E0AEE2B1E062
:1000E00001C01D92A034B207E1F70E94C1020C9436
:1000F000A8040C94000090E0FC01EC55FF4F249103
:10010000FC01E057FF4F3491FC01E458FF4FE491AC
:10011000EE23C9F0222339F0233001F1A8F4213075
:1001200019F1223029F1F0E0EE0FFF1FEE58FF4FDA
:10013000A591B4918FB7F894EC91611126C03095D8
:100140003E233C938FBF08952730A9F02830C9F093
:10015000243049F7809180008F7D03C0809180001A
:100160008F7780938000DFCF84B58F7784BDDBCF1E
:1001700084B58F7DFBCF8091B0008F778093B000E6
:10018000D2CF8091B0008F7DF9CF3E2BDACFCF93C5
:10019000DF9390E0FC01E057FF4F249184589F4F7C
:1001A000FC0184918823D1F090E0880F991FFC0115
:1001B000E859FF4FA591B491FC01EE58FF4FC5914E
:1001C000D491623071F49FB7F8943C91822F80955E
:1001D00083238C93E8812E2B28839FBFDF91CF91BF
:1001E00008958FB7F894EC912E2B2C938FBFF6CFF8
:1001F0001F93CF93DF93182FEB0161E00E94C7009C
:10020000209739F460E0812FDF91CF911F910C94FA
:100210007B00CF3FD10511F461E0F5CFE12FF0E095
:10022000EC55FF4FE491E33031F140F4E130B1F0AF
:10023000E230E1F0C038D1057CF7E4CFE73029F1B6
:10024000E83059F1E430B1F780918000806280930A
:100250008000D0938B00C0938A0004C084B580686E
:1002600084BDC7BDDF91CF911F91089584B5806291
:1002700084BDC8BDF7CF80918000806880938000E6
:10028000D0938900C0938800EDCF8091B000806842
:100290008093B000C093B300E5CF8091B00080623E
:1002A0008093B000C093B400DDCF3FB7F894809145
:1002B0003C0190913D01A0913E01B0913F0126B5D6
:1002C000A89B05C02F3F19F00196A11DB11D3FBF8E
:1002D000BA2FA92F982F8827BC01CD01620F711D5D
:1002E000811D911D42E0660F771F881F991F4A9557
:1002F000D1F708958F929F92AF92BF92CF92DF92E3
:10030000EF92FF924B015C010E9455016B017C0151
:100310000E9455016C197D098E099F09683E734042
:1003200081059105A8F321E0821A9108A108B1087E
:1003300088EEC80E83E0D81EE11CF11C81149104E4
:10034000A104B10429F7FF90EF90DF90CF90BF9008
:10035000AF909F908F90089508950F931F93CF9320
:10036000DF938B01EA01BC0183E00E94F800B80131
:1003700085E00E94F800BE0186E0DF91CF911F91D9
:100380000F910C94F8009093010180930001E9E62D
:10039000F0E080818C7F682B6083E89A08952FB706
:1003A000F8948091380190913901A0913A01B0916F
:1003B0003B012FBF80932F0190933001A093310117
:1003C000B093320110922E0163E070E08AEE91E06A
:1003D0000C94C3012FB7F8948091380190913901A2
:1003E000A0913A01B0913B012FBF40912F01509154
:1003F00030016091310170913201841B950BA60B85
:10040000B70B20912E01893E9340A105B10588F0DC
:1004100021110FC08CE090E090933601809335015C
:1004200081E080932E0162E070E08FEC91E00C940B
:10043000C3012111F8CF80913501909136010196C9
:100440006DE070E00E947A0490933601809335014C
:10045000EACF1F920F920FB60F9211242F933F9362
:100460008F939F93AF93BF938091380190913901FF
:10047000A0913A01B0913B013091370123E0230F65
:100480002D3758F50196A11DB11D2093370180939A
:10049000380190933901A0933A01B0933B018091C8
:1004A0003C0190913D01A0913E01B0913F01019628
:1004B000A11DB11D80933C0190933D01A0933E018D
:1004C000B0933F01BF91AF919F918F913F912F9139
:1004D0000F900FBE0F901F90189526E8230F0296DD
:1004E000A11DB11DD2CF1F920F920FB60F921124F2
:1004F0002F933F934F935F936F937F938F939F932C
:10050000AF93BF93EF93FF93E0910201F09103014A
:100510000995FF91EF91BF91AF919F918F917F913D
:100520006F915F914F913F912F910F900FBE0F9060
:100530001F9018951F920F920FB60F9211242F93B0
:100540003F934F935F936F937F938F939F93AF935B
:10055000BF93EF93FF93E0910001F09101010995A2
:10056000FF91EF91BF91AF919F918F917F916F918B
:100570005F914F913F912F910F900FBE0F901F9061
:100580001895CF93DF93CDB7DEB7AC970FB6F8943D
:10059000DEBF0FBECDBF789484B5826084BD84B5C4
:1005A000816084BD85B5826085BD85B5816085BD6E
:1005B00080916E00816080936E0010928100809126
:1005C00081008260809381008091810081608093AE
:1005D0008100809180008160809380008091B100D3
:1005E00084608093B1008091B00081608093B000FE
:1005F00080917A00846080937A0080917A00826092
:1006000080937A0080917A00816080937A00809153
:100610007A00806880937A001092C10061E083E0E4
:100620000E94C70061E085E00E94C70061E086E0AB
:100630000E94C70062E082E00E94C70062E070E0B2
:100640008FEC91E00E94C3010091350110913601B9
:100650000D30110508F061C0F801EF5CFC4F0C94FF
:100660008E043E039503410446044D04520457048E
:100670005E04610464046D04740477047801CC247E
:10068000CA94D12CB6016E197F0983E00E94F8004C
:10069000B70185E00E94F8006EE170E080E090E034
:1006A0000E947A012FEFE21AF20AE11481E0F806C3
:1006B00049F77801CC24CA94D12CB6016E197F0970
:1006C00085E00E94F800B70186E00E94F8006EE124
:1006D00070E080E090E00E947A019FEFE91AF90A49
:1006E000E114E1E0FE0649F7EE24EA94F12CB701AB
:1006F000601B710B86E00E94F800B80183E00E9445
:10070000F8006EE170E080E090E00E947A010F5FF7
:100710001F4F0115F1E01F0751F7E0E0F0E0EF2B6C
:1007200009F492CF0E9400008FCF8AE2E4E0F1E06A
:10073000DE01119601900D928A95E1F710E000E03C
:1007400088248A94912C80913301909134019CA744
:100750008BA7E6E0E89F7001E99FF00C112481E08F
:1007600090E08C0F9D1FE80EF91EF701A080B1806C
:10077000A09EC001A19E900DB09E900D1124B401C9
:100780000E947A0483E00E94F800F701C280D380BF
:10079000C09EC001C19E900DD09E900D1124B40149
:1007A0000E947A0485E00E94F800F7014480558099
:1007B000409EC001419E900D509E900D1124B401A9
:1007C0000E947A0486E00E94F8006FE070E080E00A
:1007D00090E00E947A010F5F1F4F0115F1E01F07A3
:1007E00009F0B1CF2FEF2A9D40012B9D900C1124D1
:1007F0002C9D80012D9D100D1124249D1001259DFF
:10080000300C1124612C77247394EE24EA94F12C9B
:10081000C401B7010E947A0483E00E94F800C80175
:10082000B7010E947A0485E00E94F800C101B70177
:100830000E947A0486E00E94F8006FE070E080E099
:1008400090E00E947A0181E0681A71088A189B087A
:100850000C191D092418350861147104C9F68BA5FB
:100860009CA5019667E070E00E947A0490933401A1
:100870008093330168EE73E080E090E00E947A019B
:100880004CCF50E040E070E060E015C050E040E048
:100890006FEF70E090E080E01DC04FEF50E070E03F
:1008A00060E0F8CF50E040E06FEF70E004C050E04F
:1008B00040E065EA70E08FEF90E00CC04FEF50E051
:1008C000E2CF4FEF50E0E4CF4EEE50E062E870E050
:1008D0008EEE90E00E94AD0120CF42E850E070E043
:1008E00060E08BE490E0F6CF4FEF50E0DDCF50E0DA
:1008F00040E0D5CF97FB072E16F4009407D077FD84
:1009000009D00E94940407FC05D03EF4909581958F
:100910009F4F0895709561957F4F0895EE0FFF1FCB
:100920000590F491E02D0994AA1BBB1B51E107C06F
:10093000AA1FBB1FA617B70710F0A61BB70B881F6F
:10094000991F5A95A9F780959095BC01CD010895FE
:04095000F894FFCF49
:10095400AC01AC01FF00000000000000FF0000003B
:1009640000000000FF00FF00FF000000FF00A500E2
:0E0974000000FF000000FF000000FF00FF0079
:00000001FF
